{
    "contractName": "InklusivaEstudologia",
    "abi": [
        {
            "inputs": [
                {
                    "internalType": "string",
                    "name": "_name",
                    "type": "string"
                },
                {
                    "internalType": "string",
                    "name": "_symbol",
                    "type": "string"
                }
            ],
            "stateMutability": "nonpayable",
            "type": "constructor"
        },
        {
            "anonymous": false,
            "inputs": [
                {
                    "indexed": true,
                    "internalType": "address",
                    "name": "owner",
                    "type": "address"
                },
                {
                    "indexed": true,
                    "internalType": "address",
                    "name": "approved",
                    "type": "address"
                },
                {
                    "indexed": true,
                    "internalType": "uint256",
                    "name": "tokenId",
                    "type": "uint256"
                }
            ],
            "name": "Approval",
            "type": "event"
        },
        {
            "anonymous": false,
            "inputs": [
                {
                    "indexed": true,
                    "internalType": "address",
                    "name": "owner",
                    "type": "address"
                },
                {
                    "indexed": true,
                    "internalType": "address",
                    "name": "operator",
                    "type": "address"
                },
                {
                    "indexed": false,
                    "internalType": "bool",
                    "name": "approved",
                    "type": "bool"
                }
            ],
            "name": "ApprovalForAll",
            "type": "event"
        },
        {
            "anonymous": false,
            "inputs": [
                {
                    "indexed": true,
                    "internalType": "address",
                    "name": "previousOwner",
                    "type": "address"
                },
                {
                    "indexed": true,
                    "internalType": "address",
                    "name": "newOwner",
                    "type": "address"
                }
            ],
            "name": "OwnershipTransferred",
            "type": "event"
        },
        {
            "anonymous": false,
            "inputs": [
                {
                    "indexed": true,
                    "internalType": "address",
                    "name": "from",
                    "type": "address"
                },
                {
                    "indexed": true,
                    "internalType": "address",
                    "name": "to",
                    "type": "address"
                },
                {
                    "indexed": true,
                    "internalType": "uint256",
                    "name": "tokenId",
                    "type": "uint256"
                }
            ],
            "name": "Transfer",
            "type": "event"
        },
        {
            "inputs": [
                {
                    "internalType": "address",
                    "name": "to",
                    "type": "address"
                },
                {
                    "internalType": "uint256",
                    "name": "tokenId",
                    "type": "uint256"
                }
            ],
            "name": "approve",
            "outputs": [],
            "stateMutability": "nonpayable",
            "type": "function"
        },
        {
            "inputs": [
                {
                    "internalType": "address",
                    "name": "owner",
                    "type": "address"
                }
            ],
            "name": "balanceOf",
            "outputs": [
                {
                    "internalType": "uint256",
                    "name": "",
                    "type": "uint256"
                }
            ],
            "stateMutability": "view",
            "type": "function"
        },
        {
            "inputs": [
                {
                    "internalType": "uint256",
                    "name": "tokenId",
                    "type": "uint256"
                }
            ],
            "name": "getApproved",
            "outputs": [
                {
                    "internalType": "address",
                    "name": "",
                    "type": "address"
                }
            ],
            "stateMutability": "view",
            "type": "function"
        },
        {
            "inputs": [
                {
                    "internalType": "address",
                    "name": "owner",
                    "type": "address"
                },
                {
                    "internalType": "address",
                    "name": "operator",
                    "type": "address"
                }
            ],
            "name": "isApprovedForAll",
            "outputs": [
                {
                    "internalType": "bool",
                    "name": "",
                    "type": "bool"
                }
            ],
            "stateMutability": "view",
            "type": "function"
        },
        {
            "inputs": [
                {
                    "internalType": "address",
                    "name": "_to",
                    "type": "address"
                }
            ],
            "name": "mint",
            "outputs": [],
            "stateMutability": "nonpayable",
            "type": "function"
        },
        {
            "inputs": [],
            "name": "name",
            "outputs": [
                {
                    "internalType": "string",
                    "name": "",
                    "type": "string"
                }
            ],
            "stateMutability": "view",
            "type": "function"
        },
        {
            "inputs": [],
            "name": "owner",
            "outputs": [
                {
                    "internalType": "address",
                    "name": "",
                    "type": "address"
                }
            ],
            "stateMutability": "view",
            "type": "function"
        },
        {
            "inputs": [
                {
                    "internalType": "uint256",
                    "name": "tokenId",
                    "type": "uint256"
                }
            ],
            "name": "ownerOf",
            "outputs": [
                {
                    "internalType": "address",
                    "name": "",
                    "type": "address"
                }
            ],
            "stateMutability": "view",
            "type": "function"
        },
        {
            "inputs": [],
            "name": "renounceOwnership",
            "outputs": [],
            "stateMutability": "nonpayable",
            "type": "function"
        },
        {
            "inputs": [
                {
                    "internalType": "address",
                    "name": "from",
                    "type": "address"
                },
                {
                    "internalType": "address",
                    "name": "to",
                    "type": "address"
                },
                {
                    "internalType": "uint256",
                    "name": "tokenId",
                    "type": "uint256"
                }
            ],
            "name": "safeTransferFrom",
            "outputs": [],
            "stateMutability": "nonpayable",
            "type": "function"
        },
        {
            "inputs": [
                {
                    "internalType": "address",
                    "name": "from",
                    "type": "address"
                },
                {
                    "internalType": "address",
                    "name": "to",
                    "type": "address"
                },
                {
                    "internalType": "uint256",
                    "name": "tokenId",
                    "type": "uint256"
                },
                {
                    "internalType": "bytes",
                    "name": "data",
                    "type": "bytes"
                }
            ],
            "name": "safeTransferFrom",
            "outputs": [],
            "stateMutability": "nonpayable",
            "type": "function"
        },
        {
            "inputs": [
                {
                    "internalType": "address",
                    "name": "operator",
                    "type": "address"
                },
                {
                    "internalType": "bool",
                    "name": "approved",
                    "type": "bool"
                }
            ],
            "name": "setApprovalForAll",
            "outputs": [],
            "stateMutability": "nonpayable",
            "type": "function"
        },
        {
            "inputs": [
                {
                    "internalType": "string",
                    "name": "_URI",
                    "type": "string"
                },
                {
                    "internalType": "uint256",
                    "name": "tokenID",
                    "type": "uint256"
                }
            ],
            "name": "setTokenURI",
            "outputs": [],
            "stateMutability": "nonpayable",
            "type": "function"
        },
        {
            "inputs": [
                {
                    "internalType": "bytes4",
                    "name": "interfaceId",
                    "type": "bytes4"
                }
            ],
            "name": "supportsInterface",
            "outputs": [
                {
                    "internalType": "bool",
                    "name": "",
                    "type": "bool"
                }
            ],
            "stateMutability": "view",
            "type": "function"
        },
        {
            "inputs": [],
            "name": "symbol",
            "outputs": [
                {
                    "internalType": "string",
                    "name": "",
                    "type": "string"
                }
            ],
            "stateMutability": "view",
            "type": "function"
        },
        {
            "inputs": [
                {
                    "internalType": "uint256",
                    "name": "index",
                    "type": "uint256"
                }
            ],
            "name": "tokenByIndex",
            "outputs": [
                {
                    "internalType": "uint256",
                    "name": "",
                    "type": "uint256"
                }
            ],
            "stateMutability": "view",
            "type": "function"
        },
        {
            "inputs": [
                {
                    "internalType": "address",
                    "name": "owner",
                    "type": "address"
                },
                {
                    "internalType": "uint256",
                    "name": "index",
                    "type": "uint256"
                }
            ],
            "name": "tokenOfOwnerByIndex",
            "outputs": [
                {
                    "internalType": "uint256",
                    "name": "",
                    "type": "uint256"
                }
            ],
            "stateMutability": "view",
            "type": "function"
        },
        {
            "inputs": [
                {
                    "internalType": "uint256",
                    "name": "tokenID",
                    "type": "uint256"
                }
            ],
            "name": "tokenURI",
            "outputs": [
                {
                    "internalType": "string",
                    "name": "",
                    "type": "string"
                }
            ],
            "stateMutability": "view",
            "type": "function"
        },
        {
            "inputs": [],
            "name": "totalSupply",
            "outputs": [
                {
                    "internalType": "uint256",
                    "name": "",
                    "type": "uint256"
                }
            ],
            "stateMutability": "view",
            "type": "function"
        },
        {
            "inputs": [
                {
                    "internalType": "address",
                    "name": "from",
                    "type": "address"
                },
                {
                    "internalType": "address",
                    "name": "to",
                    "type": "address"
                },
                {
                    "internalType": "uint256",
                    "name": "tokenId",
                    "type": "uint256"
                }
            ],
            "name": "transferFrom",
            "outputs": [],
            "stateMutability": "nonpayable",
            "type": "function"
        },
        {
            "inputs": [
                {
                    "internalType": "address",
                    "name": "newOwner",
                    "type": "address"
                }
            ],
            "name": "transferOwnership",
            "outputs": [],
            "stateMutability": "nonpayable",
            "type": "function"
        }
    ],
    "bytecode": "60806040523480156200001157600080fd5b5060405162001cd438038062001cd4833981016040819052620000349162000193565b818160006200004483826200028c565b5060016200005382826200028c565b505050620000706200006a6200007860201b60201c565b6200007c565b505062000358565b3390565b600a80546001600160a01b038381166001600160a01b0319831681179093556040519116919082907f8be0079c531659141344cd1fd0a4f28419497f9722a3daafe3b4186f6b6457e090600090a35050565b634e487b7160e01b600052604160045260246000fd5b600082601f830112620000f657600080fd5b81516001600160401b0380821115620001135762000113620000ce565b604051601f8301601f19908116603f011681019082821181831017156200013e576200013e620000ce565b816040528381526020925086838588010111156200015b57600080fd5b600091505b838210156200017f578582018301518183018401529082019062000160565b600093810190920192909252949350505050565b60008060408385031215620001a757600080fd5b82516001600160401b0380821115620001bf57600080fd5b620001cd86838701620000e4565b93506020850151915080821115620001e457600080fd5b50620001f385828601620000e4565b9150509250929050565b600181811c908216806200021257607f821691505b6020821081036200023357634e487b7160e01b600052602260045260246000fd5b50919050565b601f8211156200028757600081815260208120601f850160051c81016020861015620002625750805b601f850160051c820191505b8181101562000283578281556001016200026e565b5050505b505050565b81516001600160401b03811115620002a857620002a8620000ce565b620002c081620002b98454620001fd565b8462000239565b602080601f831160018114620002f85760008415620002df5750858301515b600019600386901b1c1916600185901b17855562000283565b600085815260208120601f198616915b82811015620003295788860151825594840194600190910190840162000308565b5085821015620003485787850151600019600388901b60f8161c191681555b5050505050600190811b01905550565b61196c80620003686000396000f3fe608060405234801561001057600080fd5b50600436106101375760003560e01c80636352211e116100b857806395d89b411161007c57806395d89b411461027c578063a22cb46514610284578063b88d4fde14610297578063c87b56dd146102aa578063e985e9c5146102bd578063f2fde38b146102f957600080fd5b80636352211e1461022a5780636a6278421461023d57806370a0823114610250578063715018a6146102635780638da5cb5b1461026b57600080fd5b806318160ddd116100ff57806318160ddd146101cc57806323b872dd146101de5780632f745c59146101f157806342842e0e146102045780634f6ccce71461021757600080fd5b806301ffc9a71461013c57806306fdde0314610164578063081812fc14610179578063095ea7b3146101a457806309a3beef146101b9575b600080fd5b61014f61014a366004611360565b61030c565b60405190151581526020015b60405180910390f35b61016c610337565b60405161015b91906113ca565b61018c6101873660046113dd565b6103c9565b6040516001600160a01b03909116815260200161015b565b6101b76101b2366004611412565b6103f0565b005b6101b76101c73660046114c8565b61050a565b6008545b60405190815260200161015b565b6101b76101ec366004611521565b61052a565b6101d06101ff366004611412565b61055b565b6101b7610212366004611521565b6105f1565b6101d06102253660046113dd565b61060c565b61018c6102383660046113dd565b61069f565b6101b761024b36600461155d565b6106ff565b6101d061025e36600461155d565b61072a565b6101b76107b0565b600a546001600160a01b031661018c565b61016c6107c4565b6101b7610292366004611578565b6107d3565b6101b76102a53660046115b4565b6107e2565b61016c6102b83660046113dd565b61081a565b61014f6102cb366004611630565b6001600160a01b03918216600090815260056020908152604080832093909416825291909152205460ff1690565b6101b761030736600461155d565b6108bc565b60006001600160e01b0319821663780e9d6360e01b1480610331575061033182610932565b92915050565b60606000805461034690611663565b80601f016020809104026020016040519081016040528092919081815260200182805461037290611663565b80156103bf5780601f10610394576101008083540402835291602001916103bf565b820191906000526020600020905b8154815290600101906020018083116103a257829003601f168201915b5050505050905090565b60006103d482610982565b506000908152600460205260409020546001600160a01b031690565b60006103fb8261069f565b9050806001600160a01b0316836001600160a01b03160361046d5760405162461bcd60e51b815260206004820152602160248201527f4552433732313a20617070726f76616c20746f2063757272656e74206f776e656044820152603960f91b60648201526084015b60405180910390fd5b336001600160a01b0382161480610489575061048981336102cb565b6104fb5760405162461bcd60e51b815260206004820152603d60248201527f4552433732313a20617070726f76652063616c6c6572206973206e6f7420746f60448201527f6b656e206f776e6572206f7220617070726f76656420666f7220616c6c0000006064820152608401610464565b61050583836109e1565b505050565b610512610a4f565b6000818152600c6020526040902061050583826116eb565b6105343382610aa9565b6105505760405162461bcd60e51b8152600401610464906117ab565b610505838383610b28565b60006105668361072a565b82106105c85760405162461bcd60e51b815260206004820152602b60248201527f455243373231456e756d657261626c653a206f776e657220696e646578206f7560448201526a74206f6620626f756e647360a81b6064820152608401610464565b506001600160a01b03919091166000908152600660209081526040808320938352929052205490565b610505838383604051806020016040528060008152506107e2565b600061061760085490565b821061067a5760405162461bcd60e51b815260206004820152602c60248201527f455243373231456e756d657261626c653a20676c6f62616c20696e646578206f60448201526b7574206f6620626f756e647360a01b6064820152608401610464565b6008828154811061068d5761068d6117f8565b90600052602060002001549050919050565b6000818152600260205260408120546001600160a01b0316806103315760405162461bcd60e51b8152602060048201526018602482015277115490cdcc8c4e881a5b9d985b1a59081d1bdad95b88125160421b6044820152606401610464565b610707610a4f565b61071981610714600b5490565b610c99565b610727600b80546001019055565b50565b60006001600160a01b0382166107945760405162461bcd60e51b815260206004820152602960248201527f4552433732313a2061646472657373207a65726f206973206e6f7420612076616044820152683634b21037bbb732b960b91b6064820152608401610464565b506001600160a01b031660009081526003602052604090205490565b6107b8610a4f565b6107c26000610e32565b565b60606001805461034690611663565b6107de338383610e84565b5050565b6107ec3383610aa9565b6108085760405162461bcd60e51b8152600401610464906117ab565b61081484848484610f52565b50505050565b6000818152600c6020526040902080546060919061083790611663565b80601f016020809104026020016040519081016040528092919081815260200182805461086390611663565b80156108b05780601f10610885576101008083540402835291602001916108b0565b820191906000526020600020905b81548152906001019060200180831161089357829003601f168201915b50505050509050919050565b6108c4610a4f565b6001600160a01b0381166109295760405162461bcd60e51b815260206004820152602660248201527f4f776e61626c653a206e6577206f776e657220697320746865207a65726f206160448201526564647265737360d01b6064820152608401610464565b61072781610e32565b60006001600160e01b031982166380ac58cd60e01b148061096357506001600160e01b03198216635b5e139f60e01b145b8061033157506301ffc9a760e01b6001600160e01b0319831614610331565b6000818152600260205260409020546001600160a01b03166107275760405162461bcd60e51b8152602060048201526018602482015277115490cdcc8c4e881a5b9d985b1a59081d1bdad95b88125160421b6044820152606401610464565b600081815260046020526040902080546001600160a01b0319166001600160a01b0384169081179091558190610a168261069f565b6001600160a01b03167f8c5be1e5ebec7d5bd14f71427d1e84f3dd0314c0f7b2291e5b200ac8c7c3b92560405160405180910390a45050565b600a546001600160a01b031633146107c25760405162461bcd60e51b815260206004820181905260248201527f4f776e61626c653a2063616c6c6572206973206e6f7420746865206f776e65726044820152606401610464565b600080610ab58361069f565b9050806001600160a01b0316846001600160a01b03161480610afc57506001600160a01b0380821660009081526005602090815260408083209388168352929052205460ff165b80610b205750836001600160a01b0316610b15846103c9565b6001600160a01b0316145b949350505050565b826001600160a01b0316610b3b8261069f565b6001600160a01b031614610b615760405162461bcd60e51b81526004016104649061180e565b6001600160a01b038216610bc35760405162461bcd60e51b8152602060048201526024808201527f4552433732313a207472616e7366657220746f20746865207a65726f206164646044820152637265737360e01b6064820152608401610464565b610bd08383836001610f85565b826001600160a01b0316610be38261069f565b6001600160a01b031614610c095760405162461bcd60e51b81526004016104649061180e565b600081815260046020908152604080832080546001600160a01b03199081169091556001600160a01b0387811680865260038552838620805460001901905590871680865283862080546001019055868652600290945282852080549092168417909155905184937fddf252ad1be2c89b69c2b068fc378daa952ba7f163c4a11628f55a4df523b3ef91a4505050565b6001600160a01b038216610cef5760405162461bcd60e51b815260206004820181905260248201527f4552433732313a206d696e7420746f20746865207a65726f20616464726573736044820152606401610464565b6000818152600260205260409020546001600160a01b031615610d545760405162461bcd60e51b815260206004820152601c60248201527f4552433732313a20746f6b656e20616c7265616479206d696e746564000000006044820152606401610464565b610d62600083836001610f85565b6000818152600260205260409020546001600160a01b031615610dc75760405162461bcd60e51b815260206004820152601c60248201527f4552433732313a20746f6b656e20616c7265616479206d696e746564000000006044820152606401610464565b6001600160a01b038216600081815260036020908152604080832080546001019055848352600290915280822080546001600160a01b0319168417905551839291907fddf252ad1be2c89b69c2b068fc378daa952ba7f163c4a11628f55a4df523b3ef908290a45050565b600a80546001600160a01b038381166001600160a01b0319831681179093556040519116919082907f8be0079c531659141344cd1fd0a4f28419497f9722a3daafe3b4186f6b6457e090600090a35050565b816001600160a01b0316836001600160a01b031603610ee55760405162461bcd60e51b815260206004820152601960248201527f4552433732313a20617070726f766520746f2063616c6c6572000000000000006044820152606401610464565b6001600160a01b03838116600081815260056020908152604080832094871680845294825291829020805460ff191686151590811790915591519182527f17307eab39ab6107e8899845ad3d59bd9653f200f220920489ca2b5937696c31910160405180910390a3505050565b610f5d848484610b28565b610f69848484846110b9565b6108145760405162461bcd60e51b815260040161046490611853565b6001811115610ff45760405162461bcd60e51b815260206004820152603560248201527f455243373231456e756d657261626c653a20636f6e7365637574697665207472604482015274185b9cd9995c9cc81b9bdd081cdd5c1c1bdc9d1959605a1b6064820152608401610464565b816001600160a01b0385166110505761104b81600880546000838152600960205260408120829055600182018355919091527ff3f7a9fe364faab93b216da50a3214154f22a0a2b415b23a84c8169e8b636ee30155565b611073565b836001600160a01b0316856001600160a01b0316146110735761107385826111ba565b6001600160a01b03841661108f5761108a81611257565b6110b2565b846001600160a01b0316846001600160a01b0316146110b2576110b28482611306565b5050505050565b60006001600160a01b0384163b156111af57604051630a85bd0160e11b81526001600160a01b0385169063150b7a02906110fd9033908990889088906004016118a5565b6020604051808303816000875af1925050508015611138575060408051601f3d908101601f19168201909252611135918101906118e2565b60015b611195573d808015611166576040519150601f19603f3d011682016040523d82523d6000602084013e61116b565b606091505b50805160000361118d5760405162461bcd60e51b815260040161046490611853565b805181602001fd5b6001600160e01b031916630a85bd0160e11b149050610b20565b506001949350505050565b600060016111c78461072a565b6111d191906118ff565b600083815260076020526040902054909150808214611224576001600160a01b03841660009081526006602090815260408083208584528252808320548484528184208190558352600790915290208190555b5060009182526007602090815260408084208490556001600160a01b039094168352600681528383209183525290812055565b600854600090611269906001906118ff565b60008381526009602052604081205460088054939450909284908110611291576112916117f8565b9060005260206000200154905080600883815481106112b2576112b26117f8565b60009182526020808320909101929092558281526009909152604080822084905585825281205560088054806112ea576112ea611920565b6001900381819060005260206000200160009055905550505050565b60006113118361072a565b6001600160a01b039093166000908152600660209081526040808320868452825280832085905593825260079052919091209190915550565b6001600160e01b03198116811461072757600080fd5b60006020828403121561137257600080fd5b813561137d8161134a565b9392505050565b6000815180845260005b818110156113aa5760208185018101518683018201520161138e565b506000602082860101526020601f19601f83011685010191505092915050565b60208152600061137d6020830184611384565b6000602082840312156113ef57600080fd5b5035919050565b80356001600160a01b038116811461140d57600080fd5b919050565b6000806040838503121561142557600080fd5b61142e836113f6565b946020939093013593505050565b634e487b7160e01b600052604160045260246000fd5b600067ffffffffffffffff8084111561146d5761146d61143c565b604051601f8501601f19908116603f011681019082821181831017156114955761149561143c565b816040528093508581528686860111156114ae57600080fd5b858560208301376000602087830101525050509392505050565b600080604083850312156114db57600080fd5b823567ffffffffffffffff8111156114f257600080fd5b8301601f8101851361150357600080fd5b61151285823560208401611452565b95602094909401359450505050565b60008060006060848603121561153657600080fd5b61153f846113f6565b925061154d602085016113f6565b9150604084013590509250925092565b60006020828403121561156f57600080fd5b61137d826113f6565b6000806040838503121561158b57600080fd5b611594836113f6565b9150602083013580151581146115a957600080fd5b809150509250929050565b600080600080608085870312156115ca57600080fd5b6115d3856113f6565b93506115e1602086016113f6565b925060408501359150606085013567ffffffffffffffff81111561160457600080fd5b8501601f8101871361161557600080fd5b61162487823560208401611452565b91505092959194509250565b6000806040838503121561164357600080fd5b61164c836113f6565b915061165a602084016113f6565b90509250929050565b600181811c9082168061167757607f821691505b60208210810361169757634e487b7160e01b600052602260045260246000fd5b50919050565b601f82111561050557600081815260208120601f850160051c810160208610156116c45750805b601f850160051c820191505b818110156116e3578281556001016116d0565b505050505050565b815167ffffffffffffffff8111156117055761170561143c565b611719816117138454611663565b8461169d565b602080601f83116001811461174e57600084156117365750858301515b600019600386901b1c1916600185901b1785556116e3565b600085815260208120601f198616915b8281101561177d5788860151825594840194600190910190840161175e565b508582101561179b5787850151600019600388901b60f8161c191681555b5050505050600190811b01905550565b6020808252602d908201527f4552433732313a2063616c6c6572206973206e6f7420746f6b656e206f776e6560408201526c1c881bdc88185c1c1c9bdd9959609a1b606082015260800190565b634e487b7160e01b600052603260045260246000fd5b60208082526025908201527f4552433732313a207472616e736665722066726f6d20696e636f72726563742060408201526437bbb732b960d91b606082015260800190565b60208082526032908201527f4552433732313a207472616e7366657220746f206e6f6e20455243373231526560408201527131b2b4bb32b91034b6b83632b6b2b73a32b960711b606082015260800190565b6001600160a01b03858116825284166020820152604081018390526080606082018190526000906118d890830184611384565b9695505050505050565b6000602082840312156118f457600080fd5b815161137d8161134a565b8181038181111561033157634e487b7160e01b600052601160045260246000fd5b634e487b7160e01b600052603160045260246000fdfea2646970667358221220821e1707c62ae0987b8c6fbf46bf34f397469dd02e312a8d756c99a960c7168764736f6c63430008130033",
    "sourcePath": "c:/Users/rodrigo.santana/Documents/GitHub/inkluziva-estudologia-nft/contracts/InklusivaEstudologia.sol",
    "compiler": {
        "name": "solc",
        "version": "0.8.19+commit.7dd6d404"
    },
    "functionHashes": {
        "approve(address,uint256)": "095ea7b3",
        "balanceOf(address)": "70a08231",
        "getApproved(uint256)": "081812fc",
        "isApprovedForAll(address,address)": "e985e9c5",
        "mint(address)": "6a627842",
        "name()": "06fdde03",
        "owner()": "8da5cb5b",
        "ownerOf(uint256)": "6352211e",
        "renounceOwnership()": "715018a6",
        "safeTransferFrom(address,address,uint256)": "42842e0e",
        "safeTransferFrom(address,address,uint256,bytes)": "b88d4fde",
        "setApprovalForAll(address,bool)": "a22cb465",
        "setTokenURI(string,uint256)": "09a3beef",
        "supportsInterface(bytes4)": "01ffc9a7",
        "symbol()": "95d89b41",
        "tokenByIndex(uint256)": "4f6ccce7",
        "tokenOfOwnerByIndex(address,uint256)": "2f745c59",
        "tokenURI(uint256)": "c87b56dd",
        "totalSupply()": "18160ddd",
        "transferFrom(address,address,uint256)": "23b872dd",
        "transferOwnership(address)": "f2fde38b"
    },
    "gasEstimates": {
        "creation": {
            "codeDepositCost": "1301600",
            "executionCost": "infinite",
            "totalCost": "infinite"
        },
        "external": {
            "approve(address,uint256)": "infinite",
            "balanceOf(address)": "2656",
            "getApproved(uint256)": "4792",
            "isApprovedForAll(address,address)": "infinite",
            "mint(address)": "242076",
            "name()": "infinite",
            "owner()": "2442",
            "ownerOf(uint256)": "2561",
            "renounceOwnership()": "infinite",
            "safeTransferFrom(address,address,uint256)": "infinite",
            "safeTransferFrom(address,address,uint256,bytes)": "infinite",
            "setApprovalForAll(address,bool)": "26727",
            "setTokenURI(string,uint256)": "infinite",
            "supportsInterface(bytes4)": "infinite",
            "symbol()": "infinite",
            "tokenByIndex(uint256)": "6826",
            "tokenOfOwnerByIndex(address,uint256)": "4997",
            "tokenURI(uint256)": "infinite",
            "totalSupply()": "2304",
            "transferFrom(address,address,uint256)": "infinite",
            "transferOwnership(address)": "28468"
        }
    }
}